:100000000C9462000C948A000C948A000C948A0070
:100010000C948A000C948A000C948A000C948A0038
:100020000C948A000C948A000C948A000C948A0028
:100030000C948A000C948A000C948A000C948A0018
:100040000C94AD080C948A000C948A000C948A00DD
:100050000C948A000C948A000C948A000C948A00F8
:100060000C94F7080C948A0000000000230026007E
:10007000290000000008000201000003040700003E
:1000800000000000000000000000250028002B00F8
:1000900000000000240027002A00040404040404D3
:1000A0000404020202020202030303030303010227
:1000B00004081020408001020408102001020408F6
:1000C00010202C0A11241FBECFEFD8E0DEBFCDBF19
:1000D00011E0A0E0B1E0EEECFEE102C005900D926F
:1000E000A639B107D9F723E0A6E9B1E001C01D9216
:1000F000AB3DB207E1F710E0C2E6D0E004C02197C3
:10010000FE010E945F0FC136D107C9F70E94C70ADE
:100110000C94650F0C940000CF93DF9390E0FC01EA
:10012000E255FF4F249186569F4FFC01849188230E
:10013000C1F090E0880F991FFC01E057FF4FC59177
:10014000D491FC01EA57FF4FA591B4919FB7F89461
:100150008881E22FE0958E2388838C91E823EC93AD
:100160009FBFDF91CF910895FC01608381E081837F
:10017000615062831382848316A2128E118E12A2A2
:10018000148E138E13A2168E158E14A210A2178E23
:1001900015A210861782128611861486138616867B
:1001A0001586108A1786128A118A148A138A168A6B
:1001B000158A92E09583508F478B9EE391A38683A7
:1001C0000895089508950895DC01ED91FC91019042
:1001D000F081E02D0994AF92BF92CF92DF92EF921F
:1001E000FF920F931F93CF93DF936C017B018B01E1
:1001F000040F151FEB015E01AE18BF08C017D10731
:1002000059F06991D601ED91FC910190F081E02DBA
:10021000C6010995892B79F7C501DF91CF911F910F
:100220000F91FF90EF90DF90CF90BF90AF90089527
:10023000833081F028F4813099F08230A9F008955C
:100240008730A9F08830C9F08430B1F48091800003
:100250008F7D03C0809180008F7780938000089508
:1002600084B58F7784BD089584B58F7DFBCF809151
:10027000B0008F778093B00008958091B0008F7D9B
:10028000F9CFCF93DF93282F30E0F901EE58FF4FDD
:100290008491F901E255FF4FD491F901E656FF4FE1
:1002A000C491CC23A1F081110E941801EC2FF0E041
:1002B000EE0FFF1FE859FF4FA591B491EC91ED238C
:1002C00081E090E009F480E0DF91CF91089580E033
:1002D00090E0FACF1F93CF93DF93282F30E0F901FE
:1002E000EE58FF4F8491F901E255FF4FD491F90187
:1002F000E656FF4FC491CC23A9F0162F81110E941E
:100300001801EC2FF0E0EE0FFF1FEA57FF4FA59109
:10031000B4918FB7F894EC91111108C0D095DE23F9
:10032000DC938FBFDF91CF911F910895DE2BF8CF23
:100330003FB7F89480914D0290914E02A0914F02E8
:10034000B091500226B5A89B05C02F3F19F0019629
:10035000A11DB11D3FBFBA2FA92F982F8827BC011F
:10036000CD01620F711D811D911D42E0660F771F47
:10037000881F991F4A95D1F708958F929F92AF9247
:10038000BF92CF92DF92EF92FF924B015C010E94ED
:1003900098016B017C010E9498016C197D098E09FE
:1003A0009F09683E734081059105A8F321E0821AF8
:1003B0009108A108B10888EEC80E83E0D81EE11CA0
:1003C000F11C81149104A104B10429F7FF90EF906E
:1003D000DF90CF90BF90AF909F908F900895209125
:1003E000FE01260F3327331F21323105ECF4209113
:1003F0002202FC0190E080E0243069F082E0089560
:10040000A091FE012191AC0142525E4FA40FB52F85
:10041000B11D2C930196861798F38091FE01680F09
:100420006093FE0180E0089581E008951092220219
:1004300081E0809324021092230261E082E10E9415
:100440006A0161E083E10E946A01E9EBF0E08081EA
:100450008E7F808380818D7F808388E48093B80045
:1004600085E48093BC000895CF93DF9391E090934F
:10047000DD018823B9F0C091B800D091BA00809115
:10048000BC008A7B8093BC0060E082E10E946A012C
:1004900060E083E10E946A010E941602D093BA00D4
:1004A000C093B800DF91CF9108950895E09158026C
:1004B00080915702E81730F4F0E0E854FE4F808155
:1004C00090E008958FEF9FEF0895909158028091EA
:1004D00057022FEF3FEF981748F4E92FF0E0E85468
:1004E000FE4F208130E09F5F90935802C90108952C
:1004F0008091570290915802891B990B0895CF92D1
:10050000DF92EF92FF920F931F93CF93DF937C01C3
:10051000CB018A012091B701222389F0EB016B0105
:10052000C40ED51ECC15DD0569F06991D701ED919A
:10053000FC910190F081E02DC7010995F3CF642F64
:100540000E94EF01C801DF91CF911F910F91FF90A1
:10055000EF90DF90CF900895CF93DF931F92CDB7A8
:10056000DEB769832091B7012223F9F0209155026B
:10057000203258F021E030E0FC013383228390E008
:1005800080E00F90DF91CF91089580915602E82F7F
:10059000F0E0E956FE4F998190838F5F8093560279
:1005A0008093550281E090E0ECCF61E0CE010196AE
:1005B0000E94EF01F7CFCF92DF92EF92FF920F935D
:1005C0001F93CF93DF93FC01C48121E02093B701F7
:1005D000C093960110925602109255028385682BA3
:1005E0008AE592E00E94AC02D0915502D13208F027
:1005F00092C00E9498016B017C01809122028111BE
:1006000065C082E08093220281E0809324028FEF14
:100610008093210210924602D0934502A7E9B1E0EF
:10062000E5E2F2E080E0D81385C0109247028091A5
:100630004702CC0FC82BC093470280912302813020
:1006400009F07CC0109223020E9498016B017C018A
:10065000809147028093BB008091D9019091DA018B
:10066000A091DB01B091DC01892B8A2B8B2B99F0B7
:100670000E9498010091D9011091DA012091DB01CB
:100680003091DC016C197D098E099F090617170747
:1006900028073907E0F18091BC0083FDD9CF85ECB4
:1006A0008093BC000E9498016B017C018091220222
:1006B000823009F445C0809121028F3F61F1809121
:1006C0002102803241F18091210225C08091D9011F
:1006D0009091DA01A091DB01B091DC01892B8A2B8A
:1006E0008B2B09F48ACF0E9498010091D9011091B7
:1006F000DA012091DB013091DC016C197D098E0952
:100700009F09061717072807390708F076CF809149
:10071000D8010E9434021092560210925502109293
:10072000B701DF91CF911F910F91FF90EF90DF9074
:10073000CF9008959D9191938F5F75CF85EEB0CF47
:100740008091D9019091DA01A091DB01B091DC0197
:10075000892B8A2B8B2B09F4A9CF0E949801009139
:10076000D9011091DA012091DB013091DC016C1983
:100770007D098E099F09061717072807390708F012
:1007800095CFC5CF089590E080E00895089508952D
:100790000F931F93CF938C01C62F0E94DB026C2F07
:1007A0006460C8010E94DB026C2F6B7FC8010E944D
:1007B000DB0283EC90E00197F1F7CF911F910F914D
:1007C00008950F931F93CF93DF938C01D62FC42FDF
:1007D000607F642B0E94C80380E1D89FB001112480
:1007E0006C2BC801DF91CF911F910F910C94C8031E
:1007F000EF92FF920F931F93CF93DF938C017A01B7
:10080000677088E0689FB0011124606440E0C8010F
:100810000E94E103E701A8E0EA0EF11C6991D8010A
:10082000ED91FC910190F081E02DC8010995CE1564
:10083000DF05A1F7DF91CF911F910F91FF90EF900E
:100840000895CF93DF93CDB7DEB728970FB6F8940E
:10085000DEBF0FBECDBF28E0E9E1F1E0DE01119679
:1008600001900D922A95E1F7FC012085241710F4E0
:100870004FEF420F50E0440F551F21E030E02C0FA6
:100880003D1F420F531FFA012081620F606840E054
:1008900028960FB6F894DEBF0FBECDBFDF91CF9183
:1008A0000C94E10340E061E00E94E1038BE39FE1EF
:1008B0000197F1F7089541E00E94E10381E090E0A3
:1008C0000895FB0101900020E9F73197AF01461B25
:1008D000570BDC01ED91FC910280F381E02D09942E
:1008E0008F929F92AF92BF92EF92FF920F931F93BE
:1008F000CF93DF93CDB7DEB7A1970FB6F894DEBFE5
:100900000FBECDBF7C01FA01CB0119A2223008F441
:100910002AE08E010F5D1F4F822E912CB12CA12C4D
:10092000BF01A50194010E943D0FF901CA016A307F
:100930000CF5605DD8016E938D01232B242B252BA4
:1009400079F790E080E0109721F0BD01C7010E9487
:100950006104A1960FB6F894DEBF0FBECDBFDF9144
:10096000CF911F910F91FF90EF90BF90AF909F900C
:100970008F900895695CDECFCF92DF92EF92FF9265
:100980000F931F93CF93DF9377FF1DC06A017B0105
:10099000EC016DE20E94E4008C0144275527BA0166
:1009A0004C195D096E097F092AE0CE010E9470048E
:1009B000800F911FDF91CF911F910F91FF90EF90CA
:1009C000DF90CF9008952AE0DF91CF911F910F9192
:1009D000FF90EF90DF90CF900C947004AB01770FF5
:1009E000660B770B0C94BC044F925F926F927F92D0
:1009F0008F929F92AF92BF92EF92FF920F931F93AD
:100A0000CF93DF938C014A015B01E22EAB0194018D
:100A1000CB01B4010E94380F6FE371E0811126C051
:100A200024013501E89477F82FEF3FEF4FE75FE7B8
:100A3000C301B2010E94380F81110CC02FEF3FEFAC
:100A40004FE75FE7C301B2010E946E0D63E471E0FE
:100A5000181664F02FEF3FEF4FE75FE4C501B401D4
:100A60000E94C60E18169CF467E471E0C801DF917D
:100A7000CF911F910F91FF90EF90BF90AF909F90FB
:100A80008F907F906F905F904F900C9461042FEF48
:100A90003FEF4FE75FECC501B4010E946E0D87FD8B
:100AA000E3CF20E030E0A901C501B4010E946E0D42
:100AB000D0E0C0E087FF09C06DE2C8010E94E400F9
:100AC000EC01B7FAB094B7F8B094FE2C712C60E04A
:100AD00070E080E09FE37E1440F420E030E040E2EC
:100AE00051E40E94730D7394F6CFA50194010E9406
:100AF000020D4B015C010E94E50D2B013C012AE037
:100B0000BC01A201C8010E947004C80FD91FEE20C9
:100B1000D1F1C301B2010E94140E9B01AC01C501C9
:100B2000B4010E94010D4B015C016EE2C8010E94FC
:100B3000E400C80FD91FFA948FEFF81621F120E0D6
:100B400030E040E251E4C501B4010E94CB0E2B011C
:100B50003C010E94E50D4B01B12CA12C2AE0B5010E
:100B6000A401C8010E947004C80FD91FC501B401B7
:100B70000E94140E9B01AC01C301B2010E94010D41
:100B80004B015C01D8CFCE01DF91CF911F910F9126
:100B9000FF90EF90BF90AF909F908F907F906F905D
:100BA0005F904F9008956115710511F00C946104E8
:100BB00090E080E008952F923F924F925F926F9263
:100BC0007F928F929F92AF92BF92CF92DF92EF92DD
:100BD000FF920F931F93CF93DF93CDB7DEB72A9782
:100BE0000FB6F894DEBF0FBECDBF2DB63EB68091D6
:100BF0006602909167020E94520480911801882336
:100C0000E9F01092180140E151E06FE08091660236
:100C1000909167020E94F80348E051E06EE08091F5
:100C20006602909167020E94F80340E051E06DE097
:100C300080916602909167020E94F803E09185021C
:100C4000F0E0EE0FFF1FE859FD4F8080918000918A
:100C5000660210916702D4015A96BC905A97589632
:100C60008C91BB2011F08B1508F4B82EF401A18CE7
:100C70002B2D30E0AB1408F470C0A394AB18A9017D
:100C80004A0D511D8417150614F4A82EAB185A2CC2
:100C9000A9014A0D511D5A874987252D2A19852DED
:100CA00090E0A985BA858A179B070CF0D7C1F4019B
:100CB000418C880F991FE80FF91FC080D180D401A3
:100CC00058968C91B81610F4F6012083D6014C91F9
:100CD00011966C91C8010E942104F601B196FC8323
:100CE000EB8376019601265F3F4F3E832D83AB81D8
:100CF000BC818D91BC83AB83813409F40BC108F0B6
:100D000061C0803209F4D8C0C0F5893009F4C6C08A
:100D100030F5813009F4E9C0883009F4B3C0B2E09D
:100D2000EB0EF11CED81FE81EE15FF0501F754106D
:100D300081C1D60114968C91823009F46BC1833045
:100D400009F47AC1813009F085C1D801ED91FC9197
:100D50000190F081E02D6FE06BC1A12C98CF803124
:100D600009F4A3C08131D9F6D7015796ED91FC91D2
:100D70004081518170E060E0B3C08C3309F479C0E8
:100D8000A0F4813209F4A4C0823349F6F60125812A
:100D900030E0D7015796ED91FC91408151816281FD
:100DA0007381C8010E94F404BACF8D3309F45AC08C
:100DB0008E3309F0B4CFF7016789708DC8010E94A6
:100DC000D305ADCF893D09F403C120F5803D09F479
:100DD000E9C080F4863409F48FC0893C09F09FCFC4
:100DE000D7015796ED91FC91309709F498CF09956A
:100DF000682F80C0813D09F4E1C0883D09F08FCFA4
:100E0000D7015796ED91FC91309709F488CF099559
:100E1000BC0140C0803F09F4F0C088F4883E09F46A
:100E2000E1C0893E09F07BCFD7015796ED91FC9147
:100E3000309709F474CF0995AB01BC0151C08B3FC9
:100E400009F4A6C08C3F09F4A3C08A3F09F067CF1C
:100E5000D7015796ED91FC91309709F460CF099531
:100E6000682F0CC0D7015796ED91FC91608171817C
:100E7000A5CFD7015796ED91FC916081C8010E94E2
:100E8000E4004DCFD7015796ED91FC916081062E7D
:100E9000000C770BC8010E94EE0441CFD701579692
:100EA000ED91FC91408150E065CFD7015796ED91CF
:100EB000FC9160817181EECFD7015796ED91FC9145
:100EC0004081518162817381C8010E94BC0427CF97
:100ED000D7015796ED91FC914081518162817381D8
:100EE0002AE0C8010E9470041ACFD7015796ED91ED
:100EF000FC91608170E0CECFF701A789B08DF80139
:100F000080819181FC01208131816C91C801F901BE
:100F1000099505CF2DB73EB738872F83D701579650
:100F20006D907C90C3010E94F80C9A83898389811B
:100F30009A81EDB7FEB7E81BF90B0FB6F894FEBF28
:100F40000FBEEDBF6DB77EB76F5F7F4F20E0822F82
:100F500090E049815A818417950754F4F301E80F12
:100F6000F91FE491860F971FDC01EC932F5FEFCF01
:100F7000E981FA81E60FF71F1082C8010E94D305AC
:100F8000EF81F8850FB6F894FEBF0FBEEDBFC7CE58
:100F9000D7015796ED91FC91309709F4C0CE099591
:100FA000BC010CCFD7015796ED91FC91309709F415
:100FB000B6CE0995682F880F770B6CCFD70157965F
:100FC000ED91FC91309709F4AACE0995482F6BCF8B
:100FD000D7015796ED91FC91309709F4A0CE099571
:100FE000AC01C8CED7015796ED91FC91309709F42A
:100FF00096CE0995AB01BC0167CFD7015796ED910D
:10100000FC91309709F48BCE0995AB01BC0122E02D
:1010100030E0C7CEF601618161504081C8010E9475
:101020002104D801ED91FC910190F081E02D6EE05A
:10103000C8010995539431CEF60142816381C801FC
:101040000E942104D801ED91FC910190F081E02DE6
:101050006DE0EECF21E0F601248377CE0FB6F89451
:101060003EBE0FBE2DBE2A960FB6F894DEBF0FBE51
:10107000CDBFDF91CF911F910F91FF90EF90DF9047
:10108000CF90BF90AF909F908F907F906F905F9028
:101090004F903F902F90089580918402882359F0BB
:1010A00080916602909167020E94520481E08093D1
:1010B00085020E94DB05E0918502F0E0EE0FFF1F44
:1010C000E859FD4F0190F081E02D808D882331F0AB
:1010D000A081B18196968C918111118E08950C9406
:1010E0004C080C944C080C944C0885ED8093BC0083
:1010F0008091D9019091DA01A091DB01B091DC01DE
:101100000796A11DB11D23E0B695A79597958795E4
:101110002A95D1F72091BC0024FD03C01092220231
:1011200008954091D9015091DA016091DB017091ED
:10113000DC01452B462B472B69F30097A105B10530
:1011400041F025E32A95F1F700000197A109B109C3
:10115000E1CF8091D8010C9434021F920F920FB608
:101160000F9211242F933F938F939F93AF93BF932D
:101170008091490290914A02A0914B02B0914C0299
:101180003091480223E0230F2D3758F50196A11D19
:10119000B11D209348028093490290934A02A09384
:1011A0004B02B0934C0280914D0290914E02A0915F
:1011B0004F02B09150020196A11DB11D80934D02C6
:1011C00090934E02A0934F02B0935002BF91AF9103
:1011D0009F918F913F912F910F900FBE0F901F9075
:1011E000189526E8230F0296A11DB11DD2CF1F929C
:1011F0000F920FB60F9211242F933F934F935F934B
:101200006F937F938F939F93AF93BF93EF93FF93CE
:101210008091B900887F803609F44AC0F0F58832A1
:1012200009F4A7C018F5803109F49BC0B8F48823ED
:1012300009F4F9C0883009F494C0FF91EF91BF918F
:10124000AF919F918F917F916F915F914F913F915E
:101250002F910F900FBE0F901F901895883109F4B1
:1012600088C0803251F78093210214C0803409F481
:101270009DC040F48033B9F38833F9F6809321029E
:1012800085ECB0C0803509F485C0883509F496C076
:10129000883499F60E947508D0CF883909F48CC03B
:1012A00038F5883729F050F4883611F0803729F660
:1012B00083E0809322021092200257C0883809F4FC
:1012C0007BC0803919F0803809F0B7CF80912002B7
:1012D000803208F071C0E091200281E08E0F80938F
:1012E00020028091BB00F0E0E050FE4F80833DC0C3
:1012F000803B39F0E0F4803A09F479C0883A09F08B
:101300009CCF84E0809322021092FF011092FE0194
:10131000E0915302F091540209958091FE018111F0
:101320000FC081E08093FE011092DE0109C0803C75
:1013300009F4A6CF883C09F4A3CF883B09F07DCF00
:10134000E091FF0181E08E0F8093FF01F0E0E25217
:10135000FE4F80818093BB009091FF018091FE0140
:1013600029C0809147028093BB0085EC8093BC002C
:1013700064CF9091460280914502981758F5E0910C
:10138000460281E08E0F80934602F0E0EB5DFD4F58
:101390008081E9CFE091460281E08E0F8093460282
:1013A0008091BB00F0E0EB5DFD4F808390914602A1
:1013B000809145029817C8F285E8D8CFE09146029F
:1013C00081E08E0F809346028091BB00F0E0EB5DE0
:1013D000FD4F80838091240281115CCF81E0809356
:1013E000230284EA8093BC001092220226CF85EC6F
:1013F0008093BC001092220280912002803230F44F
:10140000E0912002F0E0E050FE4F10826091200257
:1014100070E0E0915102F091520280E092E0099573
:10142000109220020ACF1092210234CFFC01808D4D
:101430008C3080F4A82FB0E0AA0FBB1FAE0FBF1FE7
:101440006D937C938F5F808F918D9F5F918F828F43
:1014500081E0089580E00895DF92EF92FF920F936C
:101460001F93CF93DF93EAE5F2E01382128288EEB6
:1014700093E0A0E0B0E084839583A683B78385E200
:1014800091E091838083CFECD3E01B821A8287E3C3
:1014900091E09983888387E28C8380E1898782E069
:1014A000D82EDA861B864BE451E060E088EA93E0B0
:1014B0000E94B40047E551E061E081E893E00E94BA
:1014C000B40043E651E060E08AE593E00E94B40096
:1014D0004FE651E061E083E393E00E94B40097E1BE
:1014E000E92E93E0F92EF701108E118E138E68EA23
:1014F00073E0C7010E94160A61E873E0C7010E9409
:10150000160A6AE573E0C7010E94160A63E373E0F6
:10151000C7010E94160A4BE751E060E080EF92E0BD
:101520000E94B40044E851E061E089EC92E00E943E
:10153000B4004DE851E060E082EA92E00E94B4001D
:1015400006E812E0F801108E118E138E60EF72E043
:10155000C8010E94160A69EC72E0C8010E94160ACE
:1015600062EA72E0C8010E94160AE6E6F2E0D18360
:10157000C083178EF382E28215830483D68EDF91B7
:10158000CF911F910F91FF90EF90DF900895789485
:1015900084B5826084BD84B5816084BD85B5826078
:1015A00085BD85B5816085BD80916E008160809329
:1015B0006E00109281008091810082608093810092
:1015C00080918100816080938100809180008160A2
:1015D000809380008091B10084608093B1008091FD
:1015E000B00081608093B00080917A008460809325
:1015F0007A0080917A00826080937A0080917A00EC
:10160000816080937A0080917A00806880937A006C
:101610001092C10087E00E948C0088E00E948C003C
:1016200089E00E948C00109258021092570210928A
:101630005602109255020E94160282EE90E090939C
:1016400054028093530283EE90E090935202809371
:1016500051021092D4038091D903823018F098E09F
:101660009093D4038093D70362E370E080E090E02E
:101670000E94BD016091DA038FEC93E00E94DB02CF
:1016800068EE73E080E090E00E94BD0160E38FECC3
:1016900093E00E94C803CBE4D6E4CE010197F1F7B2
:1016A00060E38FEC93E00E94C8032197F1F760E3B9
:1016B0008FEC93E00E94C80383E592E00197F1F775
:1016C00060E28FEC93E00E94C8036091D4036062F3
:1016D00040E08FEC93E00E94E10384E08093D50327
:1016E00040E06CE08FEC93E00E94E1038FEC93E02C
:1016F0000E945204C2E0C093D60340E066E08FEC43
:1017000093E00E94E10340E062E08FEC93E00E94EE
:10171000E1038BE39FE10197F1F788E08093DA031F
:1017200060E08FEC93E00E94DB02C093AC03109268
:10173000AB031092AA03C093850310928403109206
:101740008303C0935E0310925D0310925C03C09309
:10175000370310923603109235038FE698E090938A
:10176000B0038093AF0381E08093CE0321E738E09C
:1017700030938903209388038093A70323E738E0FD
:101780003093620320936103809380032CE438E05C
:1017900030933B0320933A03809359038091840252
:1017A0008E3068F4E82FF0E0EE0FFF1FE859FD4F90
:1017B00027E133E0318320838F5F8093840282E0CE
:1017C0008093F4021092F3021092F2028093CD0201
:1017D0001092CC021092CB028093A6021092A50226
:1017E0001092A40287EC93E09093F8028093F702A2
:1017F00081E08093160326EC33E03093D1022093EE
:10180000D0028093EF0221EE30E03093AA022093C1
:10181000A9028093C802809184028E3068F4E82F78
:10182000F0E0EE0FFF1FE859FD4F26E832E031836C
:1018300020838F5F8093840282E0809331038093C2
:10184000A002E0918502F0E0EE0FFF1FE859FD4F86
:101850000190F081E02D808D882331F0A081B1814D
:1018600096968C918111118E0E94DB05C0E0D0E02C
:1018700011E087E00E944101019741F580915902F2
:10188000811124C080916602909167020E945204E7
:10189000E0918502F0E0EE0FFF1FE859FD4FA081B7
:1018A000B18158969C91589759968C915997891760
:1018B00008F07AC08F5F59968C935997981377C028
:1018C0000E94DB050E94DB051093590288E00E940C
:1018D0004101019719F58091590281111FC0809132
:1018E0006602909167020E945204E0918502F0E046
:1018F000EE0FFF1FE859FD4FA081B1815996EC9181
:101900005997E11164C058968C91589759968C93C9
:101910000E94DB050E94DB051093590289E00E94BA
:101920004101019751F580915902811126C0E09142
:101930008502F0E0EE0FFF1FE859FD4F0190F081A6
:10194000E02D818D908D891771F090E0880F991F9F
:10195000E80FF91F0190F081E02D0780F085E02D60
:10196000309709F009950E94DB0564EF71E080E093
:1019700090E00E94BD011093590287E00E9441014E
:10198000892B61F488E00E944101892B39F489E0B8
:101990000E944101892B11F410925902209709F4F9
:1019A00068CF0E94000065CF59961C9259975996AE
:1019B000EC915997F0E0EE0FFF1FEA0FFB1F01902B
:1019C000F081E02D86A1882309F46ECF79CFE15014
:1019D0005996EC935997F0E0EE0FFF1FEA0FFB1FAB
:1019E0000190F081E02D86A1882309F487CF90CF64
:1019F000FC0105900020E9F7809590958E0F9F1FC0
:101A000008955058BB27AA270E94190D0C948C0EDC
:101A10000E947E0E38F00E94850E20F039F49F3F20
:101A200019F426F40C947B0E0EF4E095E7FB0C946D
:101A3000750EE92F0E949D0E58F3BA1762077307BF
:101A40008407950720F079F4A6F50C94BF0E0EF4E8
:101A5000E0950B2EBA2FA02D0B01B90190010C01BE
:101A6000CA01A0011124FF27591B99F0593F50F4D6
:101A7000503E68F11A16F040A22F232F342F44272E
:101A8000585FF3CF469537952795A795F040539526
:101A9000C9F77EF41F16BA0B620B730B840BBAF0F6
:101AA0009150A1F0FF0FBB1F661F771F881FC2F761
:101AB0000EC0BA0F621F731F841F48F48795779575
:101AC0006795B795F7959E3F08F0B0CF9395880F2F
:101AD00008F09927EE0F9795879508950E94510E6B
:101AE00008F481E008950E94870D0C948C0E0E94EA
:101AF000850E58F00E947E0E40F029F45F3F29F0D9
:101B00000C94750E51110C94C00E0C947B0E0E9417
:101B10009D0E68F39923B1F3552391F3951B550B53
:101B2000BB27AA2762177307840738F09F5F5F4FB0
:101B3000220F331F441FAA1FA9F335D00E2E3AF0EF
:101B4000E0E832D091505040E695001CCAF72BD007
:101B5000FE2F29D0660F771F881FBB1F2617370758
:101B60004807AB07B0E809F0BB0B802DBF01FF278A
:101B700093585F4F3AF09E3F510578F00C94750EE4
:101B80000C94C00E5F3FE4F3983ED4F386957795AE
:101B90006795B795F7959F5FC9F7880F911D969543
:101BA000879597F90895E1E0660F771F881FBB1F9F
:101BB000621773078407BA0720F0621B730B840B4C
:101BC000BA0BEE1F88F7E09508950E94A50E88F0E5
:101BD0009F5798F0B92F9927B751B0F0E1F0660FF1
:101BE000771F881F991F1AF0BA95C9F714C0B13032
:101BF00091F00E94BF0EB1E008950C94BF0E672FC4
:101C0000782F8827B85F39F0B93FCCF38695779560
:101C10006795B395D9F73EF4909580957095619549
:101C20007F4F8F4F9F4F0895E89409C097FB3EF474
:101C300090958095709561957F4F8F4F9F4F992319
:101C4000A9F0F92F96E9BB279395F6958795779597
:101C50006795B795F111F8CFFAF4BB0F11F460FF57
:101C60001BC06F5F7F4F8F4F9F4F16C0882311F0AF
:101C700096E911C0772321F09EE8872F762F05C0C3
:101C8000662371F096E8862F70E060E02AF09A955E
:101C9000660F771F881FDAF7880F9695879597F953
:101CA0000895990F0008550FAA0BE0E8FEEF1616ED
:101CB0001706E807F907C0F012161306E407F50740
:101CC00098F0621B730B840B950B39F40A2661F0B4
:101CD000232B242B252B21F408950A2609F4A14057
:101CE000A6958FEF811D811D089597F99F6780E864
:101CF00070E060E008959FEF80EC089500240A945E
:101D00001616170618060906089500240A941216D6
:101D10001306140605060895092E0394000C11F409
:101D2000882352F0BB0F40F4BF2B11F460FF04C0B6
:101D30006F5F7F4F8F4F9F4F089557FD9058440F0F
:101D4000551F59F05F3F71F04795880F97FB991F1A
:101D500061F09F3F79F087950895121613061406D7
:101D6000551FF2CF4695F1DF08C016161706180664
:101D7000991FF1CF86957105610508940895E8943F
:101D8000BB2766277727CB0197F908950E94510E4C
:101D900008F48FEF08950E94DE0E0C948C0E0E94C2
:101DA0007E0E38F00E94850E20F0952311F00C94E1
:101DB000750E0C947B0E11240C94C00E0E949D0E87
:101DC00070F3959FC1F3950F50E0551F629FF0018E
:101DD000729FBB27F00DB11D639FAA27F00DB11DA7
:101DE000AA1F649F6627B00DA11D661F829F222730
:101DF000B00DA11D621F739FB00DA11D621F839FB7
:101E0000A00D611D221F749F3327A00D611D231F8C
:101E1000849F600D211D822F762F6A2F11249F57DA
:101E200050409AF0F1F088234AF0EE0FFF1FBB1FDD
:101E3000661F771F881F91505040A9F79E3F51059C
:101E400080F00C94750E0C94C00E5F3FE4F3983E46
:101E5000D4F3869577956795B795F795E7959F5F46
:101E6000C1F7FE2B880F911D9695879597F90895D8
:101E70000E94510E880B990B0895A1E21A2EAA1BFD
:101E8000BB1BFD010DC0AA1FBB1FEE1FFF1FA2172A
:101E9000B307E407F50720F0A21BB30BE40BF50B27
:101EA000661F771F881F991F1A9469F760957095B0
:101EB000809590959B01AC01BD01CF010895EE0F77
:0E1EC000FF1F0590F491E02D0994F894FFCFD8
:101ECE0000000E0E0E0000000004021F02040000AF
:101EDE000004081F08040000010000400014005414
:101EEE000000000000AC027F02C3035502780265B9
:101EFE00025602000000005B04EB00C303C2036E37
:101F0E00616E00696E66006F76660032204A7567F4
:101F1E0061646F7265730033204A756761646F7216
:101F2E0065730034204A756761646F72657300359E
:101F3E00204A756761646F72657300332043617266
:101F4E0074617300342043617274617300352063D1
:061F5E0061727461730062
:00000001FF
